{
  "_format": "hh-sol-artifact-1",
  "contractName": "SchoolManagement",
  "sourceName": "contracts/SchoolManagement.sol",
  "abi": [
    {
      "inputs": [],
      "stateMutability": "nonpayable",
      "type": "constructor"
    },
    {
      "anonymous": false,
      "inputs": [
        {
          "indexed": false,
          "internalType": "uint256",
          "name": "studentId",
          "type": "uint256"
        },
        {
          "indexed": false,
          "internalType": "string",
          "name": "name",
          "type": "string"
        }
      ],
      "name": "StudentRegistered",
      "type": "event"
    },
    {
      "anonymous": false,
      "inputs": [
        {
          "indexed": false,
          "internalType": "uint256",
          "name": "studentId",
          "type": "uint256"
        }
      ],
      "name": "StudentRemoved",
      "type": "event"
    },
    {
      "inputs": [],
      "name": "admin",
      "outputs": [
        {
          "internalType": "address",
          "name": "",
          "type": "address"
        }
      ],
      "stateMutability": "view",
      "type": "function"
    },
    {
      "inputs": [
        {
          "internalType": "uint256",
          "name": "_studentId",
          "type": "uint256"
        }
      ],
      "name": "getStudent",
      "outputs": [
        {
          "internalType": "string",
          "name": "",
          "type": "string"
        },
        {
          "internalType": "bool",
          "name": "",
          "type": "bool"
        },
        {
          "internalType": "uint256",
          "name": "",
          "type": "uint256"
        }
      ],
      "stateMutability": "view",
      "type": "function"
    },
    {
      "inputs": [
        {
          "internalType": "uint256",
          "name": "_studentId",
          "type": "uint256"
        },
        {
          "internalType": "string",
          "name": "_name",
          "type": "string"
        }
      ],
      "name": "registerStudent",
      "outputs": [],
      "stateMutability": "nonpayable",
      "type": "function"
    },
    {
      "inputs": [
        {
          "internalType": "uint256",
          "name": "_studentId",
          "type": "uint256"
        }
      ],
      "name": "removeStudent",
      "outputs": [],
      "stateMutability": "nonpayable",
      "type": "function"
    },
    {
      "inputs": [
        {
          "internalType": "uint256",
          "name": "",
          "type": "uint256"
        }
      ],
      "name": "students",
      "outputs": [
        {
          "internalType": "string",
          "name": "name",
          "type": "string"
        },
        {
          "internalType": "bool",
          "name": "isRegistered",
          "type": "bool"
        },
        {
          "internalType": "uint256",
          "name": "registrationDate",
          "type": "uint256"
        }
      ],
      "stateMutability": "view",
      "type": "function"
    },
    {
      "inputs": [],
      "name": "totalStudents",
      "outputs": [
        {
          "internalType": "uint256",
          "name": "",
          "type": "uint256"
        }
      ],
      "stateMutability": "view",
      "type": "function"
    }
  ],
  "bytecode": "0x6080604052348015600f57600080fd5b50336000806101000a81548173ffffffffffffffffffffffffffffffffffffffff021916908373ffffffffffffffffffffffffffffffffffffffff1602179055506110d78061005f6000396000f3fe608060405234801561001057600080fd5b50600436106100625760003560e01c806306ead22e146100675780633f9586d414610099578063642f9163146100b55780636af83845146100e75780639852bf8e14610103578063f851a44014610121575b600080fd5b610081600480360381019061007c9190610784565b61013f565b6040516100909392919061086b565b60405180910390f35b6100b360048036038101906100ae91906109de565b6101fe565b005b6100cf60048036038101906100ca9190610784565b610440565b6040516100de9392919061086b565b60405180910390f35b61010160048036038101906100fc9190610784565b61059e565b005b61010b610710565b6040516101189190610a3a565b60405180910390f35b610129610716565b6040516101369190610a96565b60405180910390f35b600160205280600052604060002060009150905080600001805461016290610ae0565b80601f016020809104026020016040519081016040528092919081815260200182805461018e90610ae0565b80156101db5780601f106101b0576101008083540402835291602001916101db565b820191906000526020600020905b8154815290600101906020018083116101be57829003601f168201915b5050505050908060010160009054906101000a900460ff16908060020154905083565b60008054906101000a900473ffffffffffffffffffffffffffffffffffffffff1673ffffffffffffffffffffffffffffffffffffffff163373ffffffffffffffffffffffffffffffffffffffff161461028c576040517f08c379a000000000000000000000000000000000000000000000000000000000815260040161028390610b83565b60405180910390fd5b600082116102cf576040517f08c379a00000000000000000000000000000000000000000000000000000000081526004016102c690610bef565b60405180910390fd5b6001600083815260200190815260200160002060010160009054906101000a900460ff1615610333576040517f08c379a000000000000000000000000000000000000000000000000000000000815260040161032a90610c5b565b60405180910390fd5b6000815111610377576040517f08c379a000000000000000000000000000000000000000000000000000000000815260040161036e90610cc7565b60405180910390fd5b6040518060600160405280828152602001600115158152602001428152506001600084815260200190815260200160002060008201518160000190816103bd9190610e93565b5060208201518160010160006101000a81548160ff02191690831515021790555060408201518160020155905050600260008154809291906103fe90610f94565b91905055507f82972a188d7a560cf772804ac1cadfb42df2654ff1ded99159259c287ead26308282604051610434929190610fdc565b60405180910390a15050565b60606000806001600085815260200190815260200160002060010160009054906101000a900460ff166104a8576040517f08c379a000000000000000000000000000000000000000000000000000000000815260040161049f90611058565b60405180910390fd5b6000600160008681526020019081526020016000206040518060600160405290816000820180546104d890610ae0565b80601f016020809104026020016040519081016040528092919081815260200182805461050490610ae0565b80156105515780601f1061052657610100808354040283529160200191610551565b820191906000526020600020905b81548152906001019060200180831161053457829003601f168201915b505050505081526020016001820160009054906101000a900460ff161515151581526020016002820154815250509050806000015181602001518260400151935093509350509193909250565b60008054906101000a900473ffffffffffffffffffffffffffffffffffffffff1673ffffffffffffffffffffffffffffffffffffffff163373ffffffffffffffffffffffffffffffffffffffff161461062c576040517f08c379a000000000000000000000000000000000000000000000000000000000815260040161062390610b83565b60405180910390fd5b6001600082815260200190815260200160002060010160009054906101000a900460ff1661068f576040517f08c379a000000000000000000000000000000000000000000000000000000000815260040161068690611058565b60405180910390fd5b60006001600083815260200190815260200160002060010160006101000a81548160ff021916908315150217905550600260008154809291906106d190611078565b91905055507f59341c48fd0b57ee9c153818be62372ef211cc499da6c2c6d5b8fe49721f36c5816040516107059190610a3a565b60405180910390a150565b60025481565b60008054906101000a900473ffffffffffffffffffffffffffffffffffffffff1681565b6000604051905090565b600080fd5b600080fd5b6000819050919050565b6107618161074e565b811461076c57600080fd5b50565b60008135905061077e81610758565b92915050565b60006020828403121561079a57610799610744565b5b60006107a88482850161076f565b91505092915050565b600081519050919050565b600082825260208201905092915050565b60005b838110156107eb5780820151818401526020810190506107d0565b60008484015250505050565b6000601f19601f8301169050919050565b6000610813826107b1565b61081d81856107bc565b935061082d8185602086016107cd565b610836816107f7565b840191505092915050565b60008115159050919050565b61085681610841565b82525050565b6108658161074e565b82525050565b600060608201905081810360008301526108858186610808565b9050610894602083018561084d565b6108a1604083018461085c565b949350505050565b600080fd5b600080fd5b7f4e487b7100000000000000000000000000000000000000000000000000000000600052604160045260246000fd5b6108eb826107f7565b810181811067ffffffffffffffff8211171561090a576109096108b3565b5b80604052505050565b600061091d61073a565b905061092982826108e2565b919050565b600067ffffffffffffffff821115610949576109486108b3565b5b610952826107f7565b9050602081019050919050565b82818337600083830152505050565b600061098161097c8461092e565b610913565b90508281526020810184848401111561099d5761099c6108ae565b5b6109a884828561095f565b509392505050565b600082601f8301126109c5576109c46108a9565b5b81356109d584826020860161096e565b91505092915050565b600080604083850312156109f5576109f4610744565b5b6000610a038582860161076f565b925050602083013567ffffffffffffffff811115610a2457610a23610749565b5b610a30858286016109b0565b9150509250929050565b6000602082019050610a4f600083018461085c565b92915050565b600073ffffffffffffffffffffffffffffffffffffffff82169050919050565b6000610a8082610a55565b9050919050565b610a9081610a75565b82525050565b6000602082019050610aab6000830184610a87565b92915050565b7f4e487b7100000000000000000000000000000000000000000000000000000000600052602260045260246000fd5b60006002820490506001821680610af857607f821691505b602082108103610b0b57610b0a610ab1565b5b50919050565b7f4f6e6c792061646d696e2063616e20706572666f726d2074686973206163746960008201527f6f6e000000000000000000000000000000000000000000000000000000000000602082015250565b6000610b6d6022836107bc565b9150610b7882610b11565b604082019050919050565b60006020820190508181036000830152610b9c81610b60565b9050919050565b7f496e76616c69642073747564656e742049440000000000000000000000000000600082015250565b6000610bd96012836107bc565b9150610be482610ba3565b602082019050919050565b60006020820190508181036000830152610c0881610bcc565b9050919050565b7f53747564656e7420616c72656164792072656769737465726564000000000000600082015250565b6000610c45601a836107bc565b9150610c5082610c0f565b602082019050919050565b60006020820190508181036000830152610c7481610c38565b9050919050565b7f4e616d652063616e6e6f7420626520656d707479000000000000000000000000600082015250565b6000610cb16014836107bc565b9150610cbc82610c7b565b602082019050919050565b60006020820190508181036000830152610ce081610ca4565b9050919050565b60008190508160005260206000209050919050565b60006020601f8301049050919050565b600082821b905092915050565b600060088302610d497fffffffffffffffffffffffffffffffffffffffffffffffffffffffffffffffff82610d0c565b610d538683610d0c565b95508019841693508086168417925050509392505050565b6000819050919050565b6000610d90610d8b610d868461074e565b610d6b565b61074e565b9050919050565b6000819050919050565b610daa83610d75565b610dbe610db682610d97565b848454610d19565b825550505050565b600090565b610dd3610dc6565b610dde818484610da1565b505050565b5b81811015610e0257610df7600082610dcb565b600181019050610de4565b5050565b601f821115610e4757610e1881610ce7565b610e2184610cfc565b81016020851015610e30578190505b610e44610e3c85610cfc565b830182610de3565b50505b505050565b600082821c905092915050565b6000610e6a60001984600802610e4c565b1980831691505092915050565b6000610e838383610e59565b9150826002028217905092915050565b610e9c826107b1565b67ffffffffffffffff811115610eb557610eb46108b3565b5b610ebf8254610ae0565b610eca828285610e06565b600060209050601f831160018114610efd5760008415610eeb578287015190505b610ef58582610e77565b865550610f5d565b601f198416610f0b86610ce7565b60005b82811015610f3357848901518255600182019150602085019450602081019050610f0e565b86831015610f505784890151610f4c601f891682610e59565b8355505b6001600288020188555050505b505050505050565b7f4e487b7100000000000000000000000000000000000000000000000000000000600052601160045260246000fd5b6000610f9f8261074e565b91507fffffffffffffffffffffffffffffffffffffffffffffffffffffffffffffffff8203610fd157610fd0610f65565b5b600182019050919050565b6000604082019050610ff1600083018561085c565b81810360208301526110038184610808565b90509392505050565b7f53747564656e74206e6f7420666f756e64000000000000000000000000000000600082015250565b60006110426011836107bc565b915061104d8261100c565b602082019050919050565b6000602082019050818103600083015261107181611035565b9050919050565b60006110838261074e565b91506000820361109657611095610f65565b5b60018203905091905056fea2646970667358221220dfd7d0819e8119ebcf27cb613df98b61d9dcbdd11256dbbe02b1816c6c5fb7f364736f6c634300081c0033",
  "linkReferences": {},
  "deployedLinkReferences": {}
}